:100000000C9446000C9465000C9465000C946500FB
:100010000C9465000C9465000C9465000C946500CC
:100020000C9465000C9465000C9465000C946500BC
:100030000C9465000C94DE000C9465000C94650033
:100040000C9465000C9465000C9465000C9465009C
:100050000C9465000C9465000C9465000C9465008C
:100060000C9465000C9465000C9465000C9465007C
:100070000C9465000C9465000C9465000C9465006C
:100080000C9465000C9465000C94650011241FBE4F
:10009000CFEFD0E4DEBFCDBF11E0A0E0B1E0E8E5F6
:1000A000F4E000E00BBF02C007900D92A231B1074F
:1000B000D9F721E0A2E1B1E001C01D92AA31B20757
:1000C000E1F70E94FE010C942A020C940000CF93E9
:1000D000DF9300D01F92CDB7DEB789837B836A831D
:1000E00089818A3031F48A819B81BC018DE00E9434
:1000F000670080EC90E0FC018081882F90E08072A6
:100100009927892BB1F386EC90E02981FC012083AB
:1001100080E090E00F900F900F90DF91CF910895C5
:10012000CF93DF93CDB7DEB781E08093130100005A
:10013000DF91CF910895CF93DF93CDB7DEB781E8FC
:1001400090E02BE0FC01208388E890E02DE730E090
:10015000FC01318320838FE690E022E0FC012083C4
:1001600084E890E0FC011182108280910E01909150
:100170000F01A0911001B09111018093140190938F
:100180001501A0931601B09317018FE590E02FE5BC
:1001900030E0F90120812068FC0120830000DF911C
:1001A000CF910895CF93DF93CDB7DEB781E890E08C
:1001B000FC0110820000DF91CF9108951F920F92F1
:1001C00000905F000F92112400905B000F922F931C
:1001D0003F934F935F936F937F938F939F93AF93CF
:1001E000BF93EF93FF93CF93DF93CDB7DEB78091AB
:1001F000140190911501A0911601B091170101977A
:10020000A109B1098093140190931501A0931601DF
:10021000B09317018091140190911501A0911601DE
:10022000B0911701892B8A2B8B2B91F40E9490009F
:1002300080910E0190910F01A0911001B0911101D8
:100240008093140190931501A0931601B0931701A8
:100250000000DF91CF91FF91EF91BF91AF919F91FE
:100260008F917F916F915F914F913F912F910F905F
:1002700000925B000F9000925F000F901F90189506
:10028000CF93DF9300D000D0CDB7DEB769837A83F8
:100290008B839C8389819A81AB81BC8180930E0181
:1002A00090930F01A0931001B093110180910E0162
:1002B00090910F01A0911001B09111018093140150
:1002C00090931501A0931601B093170100000F90B1
:1002D0000F900F900F90DF91CF910895CF93DF9300
:1002E000CDB7DEB780911801909119018130910549
:1002F00081F08130910530F082309105B9F003979B
:1003000079F02CC081E090E090931901809318015E
:100310002AC082E090E0909319018093180123C0D5
:1003200083E090E0909319018093180180E290E0BF
:10033000FC018081882F90E081709927892B39F406
:1003400083E090E090931901809318010CC082E043
:1003500090E0909319018093180105C01092190143
:1003600010921801000080911801909119018130BC
:10037000910549F081309105D0F18230910549F025
:100380000397B9F137C085E290E021E0FC012083BA
:1003900031C09091120181E08927882309F185E21B
:1003A00090E0FC018081843029F485E290E0FC013A
:1003B000108220C085E290E0FC018081882331F426
:1003C00085E290E021E0FC01208314C085E290E00A
:1003D00025E230E0F9012081220FFC0120830AC0D0
:1003E00085E290E0FC0110821092120103C000002F
:1003F00001C000000000DF91CF910895CF93DF93FB
:10040000CDB7DEB784E290E02FEFFC01208385E2D8
:1004100090E0FC01108284E290E0FC01108282E214
:1004200090E02FEFFC0120836CE271E080E090E02F
:100430000E9440010E949B00109219011092180125
:100440000E946E010000809113018823E1F3109255
:080450001301F6CFF894FFCF71
:10045800000000020000000067000000000001002A
:02046800000092
:00000001FF
