:100000000C9446000C9465000C9465000C946500FB
:100010000C9465000C9465000C9465000C946500CC
:100020000C9465000C9465000C9465000C946500BC
:100030000C9465000C94DE000C9465000C94650033
:100040000C9465000C9465000C9465000C9465009C
:100050000C9465000C9465000C9465000C9465008C
:100060000C9465000C9465000C9465000C9465007C
:100070000C9465000C9465000C9465000C9465006C
:100080000C9465000C9465000C94650011241FBE4F
:10009000CFEFD0E4DEBFCDBF11E0A0E0B1E0E6EEEF
:1000A000F4E000E00BBF02C007900D92A431B1074D
:1000B000D9F721E0A4E1B1E001C01D92AB31B20754
:1000C000E1F70E9445020C9471020C940000CF935A
:1000D000DF9300D01F92CDB7DEB789837B836A831D
:1000E00089818A3031F48A819B81BC018DE00E9434
:1000F000670080EC90E0FC018081882F90E08072A6
:100100009927892BB1F386EC90E02981FC012083AB
:1001100080E090E00F900F900F90DF91CF910895C5
:10012000CF93DF93CDB7DEB781E080931401000059
:10013000DF91CF910895CF93DF93CDB7DEB781E8FC
:1001400090E02BE0FC01208388E890E02DE730E090
:10015000FC01318320838FE690E022E0FC012083C4
:1001600084E890E0FC01118210828091100190914E
:100170001101A0911201B091130180931501909388
:100180001601A0931701B09318018FE590E02FE5B9
:1001900030E0F90120812068FC0120830000DF911C
:1001A000CF910895CF93DF93CDB7DEB781E890E08C
:1001B000FC0110820000DF91CF9108951F920F92F1
:1001C00000905F000F92112400905B000F922F931C
:1001D0003F934F935F936F937F938F939F93AF93CF
:1001E000BF93EF93FF93CF93DF93CDB7DEB78091AB
:1001F000150190911601A0911701B0911801019776
:10020000A109B1098093150190931601A0931701DC
:10021000B09318018091150190911601A0911701DA
:10022000B0911801892B8A2B8B2B91F40E9490009E
:100230008091100190911101A0911201B0911301D0
:100240008093150190931601A0931701B0931801A4
:100250000000DF91CF91FF91EF91BF91AF919F91FE
:100260008F917F916F915F914F913F912F910F905F
:1002700000925B000F9000925F000F901F90189506
:10028000CF93DF9300D000D0CDB7DEB769837A83F8
:100290008B839C8389819A81AB81BC81809310017F
:1002A00090931101A0931201B0931301809110015A
:1002B00090911101A0911201B09113018093150149
:1002C00090931601A0931701B093180100000F90AE
:1002D0000F900F900F90DF91CF910895CF93DF9300
:1002E0001F92CDB7DEB780E290E0FC01808180955F
:1002F000837089838091190190911A018230910550
:10030000E1F18330910528F4009759F0019781F0CD
:100310006CC08330910509F447C0049709F45BC0B1
:1003200064C081E090E090931A01809319015DC050
:100330008981813039F482E090E090931A018093B2
:10034000190153C08981823039F483E090E09093A1
:100350001A018093190149C08981833039F484E0FE
:1003600090E090931A01809319013FC081E090E0E2
:1003700090931A018093190138C08981813069F402
:1003800080910E0190910F01099764F582E090E051
:1003900090931A018093190125C081E090E0909319
:1003A0001A01809319011EC08981823069F48091FD
:1003B0000E0190910F01892BB9F083E090E09093AA
:1003C0001A018093190110C081E090E090931A0106
:1003D0008093190109C081E090E090931A01809305
:1003E000190103C0000001C0000080911901909123
:1003F0001A018230910561F08330910518F401975C
:1004000091F136C083309105B1F0049739F130C0D5
:100410008981813051F580910E0190910F010997EA
:1004200024F580910E0190910F01019690930F0198
:1004300080930E011AC089818230C9F480910E0127
:1004400090910F01892B99F080910E0190910F01ED
:10045000019790930F0180930E0109C010920F0134
:1004600010920E0105C0000003C0000001C0000092
:1004700085E290E020910E0130910F01FC01208374
:1004800000000F90DF91CF910895CF93DF93CDB708
:10049000DEB784E290E02FEFFC01208385E290E05C
:1004A000FC01108284E290E0FC01108282E290E084
:1004B0002FEFFC01208364E670E080E090E00E9472
:1004C00040010E949B0010921A01109219010E9493
:1004D0006E010000809114018823E1F31092140151
:0604E000F6CFF894FFCFF7
:1004E6000000000200000000670000000000070096
:0404F6000100000001
:00000001FF
